:100000000C9495000C94BD000C94BD000C94BD00A4
:100010000C94BD000C94BD000C94BD000C94BD006C
:100020000C94BD000C94BD000C94BD000C94BD005C
:100030000C94BD000C94BD000C94BD000C94BD004C
:100040000C9402040C94BD000C9472040C944C04A7
:100050000C94BD000C94BD000C94BD000C94BD002C
:100060000C94BD000C94BD0007634236B79BD8A723
:100070001A39685618AEBAAB558C1D3CB7CC5763CD
:10008000BD6DEDFD753EF6177231BF000000803F7B
:1000900008000000BE922449123EABAAAA2ABECD97
:1000A000CCCC4C3E00000080BEABAAAAAA3E000009
:1000B0000000BF000000803F000000000008417801
:1000C000D3BB4387D1133D190E3CC3BD4282AD2B38
:1000D0003E68EC8276BED98FE1A93E4C80EFFFBE30
:1000E00001C4FF7F3F000000000000000000250069
:1000F00028002B0000000000240027002A00040430
:1001000004040404040402020202020203030303BF
:10011000030301020408102040800102040810209B
:10012000010204081020A404680811241FBECFEFA8
:10013000D8E0DEBFCDBF22E0AAEAB1E001C01D9247
:10014000AB35B207E1F711E0A0E0B1E0EEEEFDE182
:1001500002C005900D92AA3AB107D9F710E0C4E9A0
:10016000D0E004C02197FE010E94B50CC339D1072D
:10017000C9F70E94D6040C94EA0E0C94000090E09B
:10018000FC01EE5EFE4F249182509F4FFC01849152
:10019000882399F090E0880F991FFC01EC50FF4FE5
:1001A000A591B491FC01E651FF4F859194918FB7D1
:1001B000F894EC91E22BEC938FBF08950895AF92E1
:1001C000BF92CF92DF92EF92FF920F931F93CF9344
:1001D000DF936C017B018B01040F151FEB015E01A6
:1001E000AE18BF08C017D10759F06991D601ED913B
:1001F000FC910190F081E02DC6010995892B79F7DA
:10020000C501DF91CF911F910F91FF90EF90DF908B
:10021000CF90BF90AF900895CF93DF93FC014481BE
:1002200055816081718184EB91E00E94DF00EC01D7
:1002300042E050E068E171E084EB91E00E94DF0071
:100240008C0F9D1FDF91CF910895FC01538D448D3C
:10025000252F30E0842F90E0821B930B541710F071
:10026000CF96089501970895FC01918D828D98177E
:1002700061F0A28DAE0FBF2FB11D5D968C91928D56
:100280009F5F9F73928F90E008958FEF9FEF089587
:100290002FB7F8948091B0019091B101A091B20173
:1002A000B091B3012FBF8093BC019093BD01A09387
:1002B000BE01B093BF0184EB91E00E94340197FF2F
:1002C00026C02FB7F8948091B0019091B101A09110
:1002D000B201B091B3012FBF4091BC015091BD015B
:1002E0006091BE017091BF01841B950BA60BB70BEB
:1002F0004091B8015091B9016091BA017091BB0170
:1003000084179507A607B707B0F28FEF9FEF089500
:10031000FC01918D828D981731F0828DE80FF11DCF
:10032000858D90E008958FEF9FEF0895FC01918DEA
:10033000228D892F90E0805C9F4F821B91098F73E3
:100340009927089584EB91E00E94960121E0892B82
:1003500009F420E0822F089580E090E0892B29F0B5
:100360000E94A20181110C9400000895FC01A48D4B
:10037000A80FB92FB11DA35ABF4F2C91848D90E0C7
:1003800001968F739927848FA689B7892C93A089AA
:10039000B1898C91837080648C93938D848D981334
:1003A00006C00288F389E02D80818F7D80830895C7
:1003B000EF92FF920F931F93CF93DF93EC0181E0B5
:1003C000888F9B8D8C8D98131AC0E889F98980815C
:1003D00085FF15C09FB7F894EE89FF896083E8898F
:1003E000F98980818370806480839FBF81E090E081
:1003F000DF91CF911F910F91FF90EF900895F62E0E
:100400000B8D10E00F5F1F4F0F731127E02E8C8DA7
:100410008E110CC00FB607FCFACFE889F9898081EC
:1004200085FFF5CFCE010E94B601F1CFEB8DEC0F29
:10043000FD2FF11DE35AFF4FF0829FB7F8940B8F09
:10044000EA89FB8980818062CFCFCF93DF93EC0173
:10045000888D8823B9F0AA89BB89E889F9898C91AC
:1004600085FD03C0808186FD0DC00FB607FCF7CF68
:100470008C9185FFF2CF808185FFEDCFCE010E9468
:10048000B601E9CFDF91CF9108950F931F93CF93DA
:10049000DF93EC0188819981009759F02A813B8193
:1004A0002617370730F081E0DF91CF911F910F9130
:1004B00008958B016F5F7F4F0E94E00D009759F008
:1004C000998388831B830A832C813D81232B59F7D1
:1004D000FC011082E8CF80E0E7CFEF92FF920F930C
:1004E0001F93CF93DF936115710541F480E0DF9195
:1004F000CF911F910F91FF90EF90089541155105F5
:10050000B1F07B01EC010C811D81040F151FB801B6
:100510000E944502882351F3288139818C819D8175
:10052000B701820F931F0E94C90E1D830C8381E0C7
:10053000DECFCF93DF93EC0188819981009711F092
:100540000E94570D198218821D821C821B821A82FA
:10055000DF91CF910895CF93DF93EC01FB010190E0
:100560000020E9F73197AF01461B570B0E946D023F
:10057000811103C0CE010E949902CE01DF91CF917B
:100580000895CF93DF93EC01FB0144815581608195
:1005900071810E946D02811103C0CE010E949902F7
:1005A000CE01DF91CF910895EF92FF920F931F93A9
:1005B000CF93DF93EC017B018A01BA010E944502CF
:1005C00081110BC0CE010E949902CE01DF91CF9123
:1005D0001F910F91FF90EF9008951D830C83B70139
:1005E000888199810E94C90EF0CFFB010190002003
:1005F000E9F73197AF01461B570B0C94D4020F93C8
:100600001F93CF93DF93CDB7DEB762970FB6F89401
:10061000DEBF0FBECDBF8C01CB01F801118210826D
:1006200013821282158214824AE0BE016F5F7F4FEF
:100630000E949308BE016F5F7F4FC8010E94F502C0
:1006400062960FB6F894DEBF0FBECDBFDF91CF919B
:100650001F910F910895FC01118210821382128262
:1006600015821482FB0101900020E9F73197AF0158
:10067000461B570B0C94D402FC01808191810C9491
:10068000570DFB01DC0111961C921E9213961C92D1
:100690001E92129715961C921E9214978617970712
:1006A00049F0608171816115710521F044815581A6
:1006B0000C94D40208950F931F93CF93DF93CDB77B
:1006C000DEB7AA970FB6F894DEBF0FBECDBF8C0180
:1006D00070E060E0CE0185960E94FF0270E060E06D
:1006E000CE014F960E94FF0262E370E0CE01499670
:1006F0000E94FF0260E07BE4CE0143960E94FF026D
:1007000061E572E0CE010D960E9441036BE171E05C
:10071000CE0101960E942B03BE016F5F7F4FCE0179
:1007200007960E9441036EE171E0CE0107960E9498
:10073000AB02BE01635F7F4F0E94C10269E171E0BD
:100740000E94AB026FE271E00E94AB02BE016D5EDF
:100750007F4F0E94C10269E171E00E94AB0260E438
:1007600071E00E94AB02BE01675E7F4F0E94C10232
:1007700069E171E00E94AB0261E571E00E94AB02A9
:10078000BE01615E7F4F0E94C10269E171E00E947B
:10079000AB0262E671E00E94AB02BE016B5D7F4F6F
:1007A0000E94C10269E171E00E94AB02BC01C80174
:1007B0000E944103CE0107960E943C03CE010196A0
:1007C0000E943C03CE010D960E943C03CE0143964D
:1007D0000E943C03CE0149960E943C03CE014F96F5
:1007E0000E943C03CE0185960E943C03C801AA9654
:1007F0000FB6F894DEBF0FBECDBFDF91CF911F9132
:100800000F9108951F920F920FB60F9211242F93FC
:100810003F938F939F93AF93BF938091B00190913B
:10082000B101A091B201B091B3013091AF0123E0C9
:10083000230F2D3758F50196A11DB11D2093AF014F
:100840008093B0019093B101A093B201B093B30132
:100850008091AB019091AC01A091AD01B091AE013E
:100860000196A11DB11D8093AB019093AC01A093A3
:10087000AD01B093AE01BF91AF919F918F913F9128
:100880002F910F900FBE0F901F90189526E8230F01
:100890000296A11DB11DD2CF1F920F920FB60F92DB
:1008A00011242F933F934F935F936F937F938F9375
:1008B0009F93AF93BF93EF93FF9384EB91E00E94DC
:1008C000B601FF91EF91BF91AF919F918F917F9171
:1008D0006F915F914F913F912F910F900FBE0F90AD
:1008E0001F9018951F920F920FB60F9211242F93FD
:1008F0008F939F93EF93FF93E091C401F091C50113
:100900008081E091CA01F091CB0182FD1BC09081F2
:100910008091CD018F5F8F732091CE01821741F0BE
:10092000E091CD01F0E0EC54FE4F958F8093CD0126
:10093000FF91EF919F918F912F910F900FBE0F908C
:100940001F9018958081F4CFE4EBF1E013821282BE
:1009500088EE93E0A0E0B0E084839583A683B7831C
:100960008AE091E09183808385EC90E0958784878D
:1009700084EC90E09787868780EC90E0918B808B69
:1009800081EC90E0938B828B82EC90E0958B848B52
:1009900086EC90E0978B868B118E128E138E148EC0
:1009A00063E771E081E592E00C942B03CF93DF9332
:1009B000CDB7DEB7E0970FB6F894DEBF0FBECDBF60
:1009C000789484B5826084BD84B5816084BD85B52A
:1009D000826085BD85B5816085BD80916E00816036
:1009E00080936E00109281008091810082608093DC
:1009F00081008091810081608093810080918000DE
:100A00008160809380008091B10084608093B10008
:100A10008091B00081608093B00080917A00846002
:100A200080937A0080917A00826080937A0080912E
:100A30007A00816080937A0080917A008068809348
:100A40007A001092C100E091C401F091C50182E0EA
:100A50008083E091C001F091C1011082E091C20158
:100A6000F091C30187E680831092CC01E091C80128
:100A7000F091C90186E08083E091C601F091C70141
:100A8000808180618083E091C601F091C7018081FF
:100A900088608083E091C601F091C7018081806801
:100AA0008083E091C601F091C70180818F7D8083B2
:100AB00082E390E0A0E0B0E08093B8019093B901A8
:100AC000A093BA01B093BB0188E00E94BF008CE004
:100AD0000E94BF008BE00E94BF00CE0101960E94E1
:100AE0005B03CE0101960E940C01CE0101960E948B
:100AF0003C0384EB91E00E949601181619060CF055
:100B0000DAC26AE171E0CE018B960E942B030E944B
:100B1000480197FD0CC089831A8241E050E0BE0174
:100B20006F5F7F4FCE018B960E946D02F0CF6AE11E
:100B300071E0CE0107960E942B0369E171E0CE01BE
:100B400001960E942B03AFA4B8A8A114B10409F424
:100B500061C08D809E808114910409F45BC0EB8498
:100B6000FC84E818F9080BA51CA5E114F104A1F414
:100B700069817A81C8010E94D00E8C01009709F426
:100B800049C06F8178854B855C850E94A50E8B8559
:100B90009C85080F191FECCFF7FC0FC069807A8085
:100BA0006501C801B3010E94D00E009709F45BC033
:100BB000880D991DCE0CDF1CF5CF680169817A8103
:100BC000C8010E94D00E5C01009701F14C01801A0F
:100BD000910AA401B801C6010E94A50EC80CD91C37
:100BE0006F8178854B855C85C6010E94A50E8B853B
:100BF0009C85C80ED91E0D811E810A0D1B1D8FA557
:100C000098A98E0D9F1D98AB8FA7D8CFB801C601AC
:100C10000E94C90ECE0101960E943C03CE010796A8
:100C20000E943C03CBA4DCA4C114D10439F00FA56D
:100C300018A976010115110509F08AC00BA51CA59C
:100C40000115110509F4BAC0F80181918F018823BB
:100C500009F4B4C0082E000C990B0E949D0EF801F7
:100C600031978083F1CFAC14BD04A1F28DA59EA570
:100C70008C159D0560F4B6016F5F7F4FC8010E941F
:100C8000E00D009739F29CA78BA7DEA6CDA60FA595
:100C900018A90150110917FDBDCF48016D807E8054
:100CA0006114710409F4B6CFAFA4B8A8A114B104BB
:100CB00009F4B0CFA614B70408F4ACCF0A151B058D
:100CC00020F0450181E0881A9108CBA4DCA429809A
:100CD0003A80C6010FEF1FEF2601480C591C481639
:100CE000590678F0B1010E94D00E009751F09C0196
:100CF0002C193D098216930608F498010196890182
:100D0000EECF17FD87CF600E711EC601860D971DB1
:100D1000A50146195709BC018E0D9F1D0E94AE0EFC
:100D20008FA598A98E0D9F1D98AB8FA72BA53CA5CD
:100D3000820F931FFC0110828BA59CA56F81788583
:100D40004B855C85800F911F0E94A50EA2CF750177
:100D50005701FFEFAF1ABF0AF7018081082E000C80
:100D6000990B0E94CD08892B91F7015011090C0DA8
:100D70001D1DF8018081082E000C990B0E94CD08E2
:100D8000892B31F00E151F0518F001501109F1CF14
:100D9000A8014F5F5F4F4E195F0958AB4FA7CE14A4
:100DA000DF0420F4B701C6010E94A50EEBA5FCA547
:100DB0008FA598A9E80FF91F108240CFBE01655D8D
:100DC0007F4FCE0101960E9441038BA59CA5009701
:100DD00009F42BC169817A816115710509F423C178
:100DE0004DA55EA52D813E814217530708F41BC116
:100DF0000E94C90E8D819E8198AB8FA71E821D8295
:100E0000CE0101960E943C03BE01655D7F4FCE017D
:100E100001960E944103CE0101960E940C01CE0171
:100E200001960E943C038FA598A9089709F027C155
:100E30008BA59CA5FC01009721F41092AA01EAEA77
:100E4000F1E020812B3509F01EC1009709F0FEC0AA
:100E50001092AA018AEA91E0FC0180818D3509F0A7
:100E600012C16AE171E0CE0185960E942B030FA5A5
:100E700018A902301105E8F00730110510F007E05D
:100E800010E0EBA5FCA5E00FF11FF08010826BA530
:100E90007CA56F5F7F4FCE0185966115710509F4C2
:100EA000D7C00E94F5028BA59CA5080F191FF80159
:100EB000F08209A51AA501501109F12CE12C17FDAA
:100EC000CDC089A59AA50817190728F4EDA1FEA1A0
:100ED000309709F0C0C01092AA01EAEAF1E08081DF
:100EE0001A8219821C821B821E821D828F831886A1
:100EF000BE01695F7F4FCE0101960E94F502898194
:100F00009A81412C512C3201009719F00E946C08F3
:100F10002B01CE0101960E943C03F2E04F165104D2
:100F200008F09CC089A59AA56801C81AD90AC0947E
:100F3000D094B6010D2C000C880B990B0E94E80888
:100F40009B01AC0160E070E080E090E40E94510AF7
:100F50000E941B0A649D5001659DB00C749DB00CED
:100F60001124B601CE0107960E94FF02B501CE0101
:100F70000D960E94FF02B201CE0143960E94FF022D
:100F8000B801CE0149960E94FF0268E871E0CE01E7
:100F90004F960E942B03BE01675E7F4FCE014F9696
:100FA0000E94C10264E871E00E94AB02BE016D5E66
:100FB0007F4F0E94C1026BE871E00E94AB02BE014C
:100FC000635F7F4F0E94C10262E971E00E94AB0241
:100FD000BE01695F7F4F0E94C102BC01CE01019634
:100FE0000E944103CE0101960E940C01CE010196A0
:100FF0000E943C03CE014F960E943C03CE014996CD
:101000000E943C03CE0143960E943C03CE010D9604
:101010000E943C03CE0107960E943C03EA0CFB1C95
:10102000015011094CCF0E94570D89819A819CA7CC
:101030008BA78B819C819EA78DA78D819E8198AB6C
:101040008FA71A8219821C821B82D8CE079604CFE2
:101050000E94990228CFE00FF11F41CFB701CE01C6
:1010600001960E94FF02CE0101960E940C01CE0162
:1010700001960E943C03CE0185960E943C038FA5F9
:1010800098A9892BA1F069E971E08BA59CA50E9424
:10109000C00E892B61F4CE0101960E945B03CE0144
:1010A00001960E940C01CE0101960E943C03CE01E4
:1010B0008B960E943C0380E090E0892B09F419CDC7
:1010C0000E94A201882309F414CD0E94000011CDD2
:1010D00081E592E00C943C031F93FC01992788273B
:1010E000BC01E89411911032E9F3193010F01E3070
:1010F000C8F31B3251F01D3249F4689406C00E94B7
:101100009E08610F711D811D911D119110531A30A0
:10111000B0F33EF490958095709561957F4F8F4F19
:101120009F4F1F910895BB274A3031F4992322F431
:10113000BDE2909581959F4F0C94B408592F482F8C
:10114000372F262F660F771F881F991F660F771F6F
:10115000881F991F620F731F841F951F660F771FCB
:10116000881F991F0895BB27FB015527AA27880FC1
:10117000991FAA1FA41710F0A41B83955051B9F70B
:10118000A05DAA3308F0A95DA193009779F7B1118A
:10119000B1931192CB010C94D60891110C94900943
:1011A000803219F089508550C8F70895DC01FC01A0
:1011B000672F71917723E1F7329704C07C916D938B
:1011C00070836291AE17BF07C8F30895E89409C011
:1011D00097FB3EF490958095709561957F4F8F4F6A
:1011E0009F4F9923A9F0F92F96E9BB279395F69580
:1011F000879577956795B795F111F8CFFAF4BB0FFE
:1012000011F460FF1BC06F5F7F4F8F4F9F4F16C061
:10121000882311F096E911C0772321F09EE8872FEB
:10122000762F05C0662371F096E8862F70E060E0A7
:101230002AF09A95660F771F881FDAF7880F969520
:10124000879597F908950E9436090C94AA090E947F
:101250009C0938F00E94A30920F0952311F00C940A
:1012600093090C94990911240C94DE090E94BB097E
:1012700070F3959FC1F3950F50E0551F629FF001E9
:10128000729FBB27F00DB11D639FAA27F00DB11D02
:10129000AA1F649F6627B00DA11D661F829F22278B
:1012A000B00DA11D621F739FB00DA11D621F839F12
:1012B000A00D611D221F749F3327A00D611D231FE8
:1012C000849F600D211D822F762F6A2F11249F5736
:1012D00050409AF0F1F088234AF0EE0FFF1FBB1F39
:1012E000661F771F881F91505040A9F79E3F5105F8
:1012F00080F00C9493090C94DE095F3FE4F3983E70
:10130000D4F3869577956795B795F795E7959F5FA1
:10131000C1F7FE2B880F911D9695879597F9089533
:1013200099278827089597F99F6780E870E060E023
:1013300008959FEF80EC089500240A94161617066E
:1013400018060906089500240A94121613061406B6
:1013500005060895092E0394000C11F4882352F019
:10136000BB0F40F4BF2B11F460FF04C06F5F7F4FD1
:101370008F4F9F4F089557FD9058440F551F59F0B8
:101380005F3F71F04795880F97FB991F61F09F3F72
:1013900079F087950895121613061406551FF2CF9B
:1013A0004695F1DF08C0161617061806991FF1CFEB
:1013B00086957105610508940895E894BB27662712
:1013C0007727CB0197F908952F923F924F925F9222
:1013D0006F927F928F929F92AF92BF92CF92DF9245
:1013E000EF92FF920F931F93CF93DF93CDB7DEB7AA
:1013F000CA1BDB0B0FB6F894DEBF0FBECDBF09943E
:101400002A88398848885F846E847D848C849B8494
:10141000AA84B984C884DF80EE80FD800C811B81A2
:10142000AA81B981CE0FD11D0FB6F894DEBF0FBED1
:10143000CDBFED0108950E94220A6894B1110C9469
:10144000DE0908950E94C30988F09F5798F0B92FCC
:101450009927B751B0F0E1F0660F771F881F991FE9
:101460001AF0BA95C9F714C0B13091F00E94DD09A5
:10147000B1E008950C94DD09672F782F8827B85FB5
:1014800039F0B93FCCF3869577956795B395D9F741
:101490003EF490958095709561957F4F8F4F9F4F4B
:1014A0000895FA01EE0FFF1F309621053105A1F1D5
:1014B0006115710561F48038BFE39B0749F16894B9
:1014C0009038810561F08038BFEF9B0741F0992388
:1014D0004AF5FF3FE1053105210519F1E89408942B
:1014E000E795D901AA2329F4AB2FBE2FF85FD0F3DB
:1014F00010C0FF5F70F4A695E0F7F73950F019F0CF
:10150000FF3A38F49F779F930DD00F9007FC9058C7
:10151000089546F00C94990960E070E080E89FE33C
:1015200008954FE79F775F934F933F932F930E94C8
:101530004C0B2F913F914F915F910E9423090C9486
:10154000A90A29F416F00C9493090C94DD090C9463
:1015500099090E94C309A8F39638A0F707F80F92DB
:10156000E8942BE33AEA48EB5FE70E9439090F92CF
:101570000F920F924DB75EB70F920E94940BE8E660
:10158000F0E00E94DB0A4F915F91EF91FF91E595AA
:10159000EE1FFF1F49F0FE57E0684427EE0F441F7F
:1015A000FA95E1F74195550B0E940E0B0F9007FE3F
:1015B0000C94020B0895DF93CF931F930F93FF9228
:1015C000EF92DF927B018C01689406C0DA2EEF0166
:1015D0000E943609FE01E894A59125913591459127
:1015E0005591A6F3EF010E94E00BFE019701A801BF
:1015F000DA9469F7DF90EF90FF900F911F91CF91F0
:10160000DF9108959B01AC0160E070E080E89FE30A
:101610000C94350C0C9493090C94A70C0E94C309EC
:10162000D8F39923C9F3940F511DA3F3915050405F
:1016300094F059F0882332F0660F771F881F91507D
:101640005040C1F79E3F51052CF7880F911D96958C
:10165000879597F908955F3FACF0983E9CF0BB27C3
:10166000869577956795B79508F4B1609395C1F71E
:10167000BB0F58F711F460FFE8CF6F5F7F4F8F4FBC
:101680009F4FE3CF0C94DE0916F00C94A70C0C943A
:10169000990968940C9493090E94C309A8F39923AB
:1016A000C1F3AEF3DF93CF931F930F93FF92C92F34
:1016B000DD2788232AF02197660F771F881FDAF726
:1016C00020E030E040E85FEB9FE3883920F0803E87
:1016D00038F021968F770E94C90BE0E9F0E004C052
:1016E0000E94C90BEDEBF0E00E94DB0A8B01BE010A
:1016F000EC01FB2E6F5771097595771F880B990BBD
:101700000E94E80828E132E741E35FE30E943609DE
:10171000AF2D9801AE01FF900F911F91CF91DF91F6
:101720000E94E00B0C94AA09FA01DC01AA0FBB1F6E
:101730009B01AC01BF5728F4222733274427507858
:1017400020C0B75190F4AB2F0024469537952795CC
:10175000011CA395D2F3002071F0220F331F441F08
:10176000B395DAF30ED00C94C80B61307105A0E884
:101770008A07B94630F49B01AC0166277727882792
:101780009078309621F020833183428353830895EB
:101790005058BB27AA270E94E00B0C94AA090E946C
:1017A0009C0938F00E94A30920F039F49F3F19F4F6
:1017B00026F40C9499090EF4E095E7FB0C94930938
:1017C000E92F0E94BB0958F3BA1762077307840711
:1017D000950720F079F4A6F50C94DD090EF4E09558
:1017E0000B2EBA2FA02D0B01B90190010C01CA01DB
:1017F000A0011124FF27591B99F0593F50F4503E86
:1018000068F11A16F040A22F232F342F4427585F77
:10181000F3CF469537952795A795F0405395C9F78F
:101820007EF41F16BA0B620B730B840BBAF0915047
:10183000A1F0FF0FBB1F661F771F881FC2F70EC0E6
:10184000BA0F621F731F841F48F4879577956795B9
:10185000B795F7959E3F08F0B0CF9395880F08F0A5
:101860009927EE0F9795879508950E94490C0C943F
:10187000AA090E94A30958F00E949C0940F029F48B
:101880005F3F29F00C94930951110C94DE090C94DC
:1018900099090E94BB0968F39923B1F3552391F389
:1018A000951B550BBB27AA2762177307840738F0CF
:1018B0009F5F5F4F220F331F441FAA1FA9F335D02C
:1018C0000E2E3AF0E0E832D091505040E695001CE0
:1018D000CAF72BD0FE2F29D0660F771F881FBB1F9A
:1018E000261737074807AB07B0E809F0BB0B802D78
:1018F000BF01FF2793585F4F3AF09E3F510578F0A4
:101900000C9493090C94DE095F3FE4F3983ED4F302
:10191000869577956795B795F7959F5FC9F7880F77
:10192000911D9695879597F90895E1E0660F771FC9
:10193000881FBB1F621773078407BA0720F0621B5A
:10194000730B840BBA0BEE1F88F7E09508959F3F49
:1019500031F0915020F4879577956795B795880F6A
:10196000911D9695879597F90895EE0FFF1F0590A5
:10197000F491E02D09940F931F93CF93DF9382305E
:10198000910510F482E090E0E0915902F0915A0242
:1019900030E020E0B0E0A0E0309799F42115310567
:1019A00009F44AC0281B390B24303105D8F58A8147
:1019B0009B816115710589F1FB0193838283FE018F
:1019C00011C0408151810281138148175907E0F00D
:1019D0004817590799F4109761F012960C931297D3
:1019E00013961C933296CF01DF91CF911F910F91E7
:1019F00008950093590210935A02F4CF211531052E
:101A000051F04217530738F0A901DB019A01BD01DB
:101A1000DF01F801C1CFEF01F9CF90935A02809313
:101A20005902CDCFFE01E20FF31F81939193225013
:101A3000310939832883D7CF20915702309158023A
:101A4000232B41F42091020130910301309358027D
:101A50002093570220910001309101012115310599
:101A600041F42DB73EB74091040150910501241B6C
:101A7000350BE0915702F0915802E217F307A0F4FA
:101A80002E1B3F0B2817390778F0AC014E5F5F4FD4
:101A90002417350748F04E0F5F1F509358024093AC
:101AA0005702819391939FCFF0E0E0E09CCFCF93DA
:101AB000DF930097E9F0FC01329713821282A09124
:101AC0005902B0915A02ED0130E020E01097A1F4E4
:101AD00020813181820F931F20915702309158024B
:101AE0002817390709F061C0F0935802E0935702B4
:101AF000DF91CF910895EA01CE17DF07E8F54A811B
:101B00005B819E0141155105B1F7E901FB83EA8331
:101B100049915991C40FD51FEC17FD0761F48081DD
:101B200091810296840F951FE901998388838281B0
:101B300093819B838A83F0E0E0E012968D919C91E3
:101B400013970097B9F52D913C911197CD0102960D
:101B5000820F931F2091570230915802281739079E
:101B600039F6309751F510925A0210925902B093FB
:101B70005802A0935702BCCFD383C28340815181C6
:101B8000840F951FC817D90761F44E5F5F4F888196
:101B90009981480F591F518340838A819B81938388
:101BA00082832115310509F0B0CFF0935A02E093FA
:101BB00059029ECFFD01DC01C0CF13821282D7CF24
:101BC000B0E0A0E0E6EEFDE00C94E6098C010097A1
:101BD00051F4CB010E94BB0C8C01C801CDB7DEB71C
:101BE000E0E10C94020AFC01E60FF71F9C01225071
:101BF0003109E217F30708F49DC0D901CD91DC91BA
:101C00001197C617D70798F0C530D10530F3CE012C
:101C100004978617970708F3C61BD70B2297C19323
:101C2000D1936D937C93CF010E94570DD6CF5B016A
:101C3000AC1ABD0A4C018C0E9D1EA0915902B091A8
:101C40005A02512C412CF12CE12C109731F5809146
:101C50005702909158028815990509F05CC0461604
:101C6000570608F058C0809100019091010100973B
:101C700041F48DB79EB74091040150910501841B3A
:101C8000950BE817F90708F055C0F0935802E09358
:101C90005702F90171836083A0CF8D919C911197B8
:101CA00012966C90129713967C901397A815B9050D
:101CB00059F56C0142E0C40ED11CCA14DB0420F1BA
:101CC000AC014A195B09DA011296159780F062821D
:101CD000738251834083D9016D937C93E114F104A5
:101CE00071F0D7011396FC93EE93129776CF22965C
:101CF0008C0F9D1FF90191838083F301EFCFF09347
:101D00005A02E093590269CF4816590608F42C018B
:101D10007D01D3019ACFCB010E94BB0C7C010097BF
:101D200049F0AE01B8010E94A50EC8010E94570DEE
:101D3000870153CF10E000E050CF911108958154F6
:101D40008A5108F4805E855A0895FB01DC0102C0C7
:101D500001900D9241505040D8F7089568177907C7
:101D600068F4FB01DC01E40FF51FA40FB51F02C0EE
:101D700002900E9241505040D8F708950C94A50E51
:101D8000FB01DC018D91019080190110D9F3990BB1
:101D90000895FB01DC0101900D920020E1F7089508
:101DA000FB0151915523A9F0BF01DC014D9145176D
:101DB0004111E1F759F4CD010190002049F04D9116
:101DC00040154111C9F3FB014111EFCF81E090E0D3
:101DD0000197089510E0C4E9D0E004C0FE010E941C
:0E1DE000B50C2196C539D107C9F7F894FFCF8D
:101DEE0000005B02800000000000D801DF0025012A
:101DFE0025029601340188010D0A00200A0064654F
:101E0E0076696365206E616D653A20202020006240
:101E1E0075616420726174653A20202020202000B4
:101E2E00706F72742074696D656F75743A2020201E
:101E3E0000737769746368206368616E6E656C3ACF
:101E4E0020007377697463682073746174653A2037
:101E5E0020200052656C617920436F6E74726F6C36
:101E6E006C65720020646967693A00206461746170
:101E7E003A00706F7765723A006465766963655FE4
:0A1E8E007374617475732829000055
:00000001FF
